:03000000020006F5
:1D005F00756600752E01752F00753064756101756200756300E4F564F56502000336
:03000300020524CF
:20007C0085822185832285F023F524780079007A007B01E4F525F526EBC313FBEA13FAE9C5
:20009C0013F9E813F85521FCE95522FDEA5523FEEB5524FFEC4D4E4F7015C003C002C00112
:2000BC00C0001200F2D000D001D002D0038013C003C002C001C0001200F7D000D001D00205
:2000DC00D0030525E4B525020526C3E5259418E526940040A322D292C29222D2920000C2FF
:2000FC009222AE82AF83C2927C007D00C3EC9EED64808FF063F08095F0500A0000000CBC6A
:20011C0000EA0D80E722AF82AD277E0074012DF508E43EF5097E008F828E831205EDE583F5
:20013C00FF3395E0FDFC8F06EC3395E08E8222AE82AF83AD28E44206ED4207EF3395E0FC7C
:20015C008F058E077E00A82AE52BF93395E0FAFBE84206E94207EA4205EB42048E828F837E
:20017C008DF0EC22AE82AF83C374FF9E74808FF063F08095F092007C007D007A007B0078DF
:20019C0000790020000F7CFF7D008E028F03780079000202A1C374FF9E74808FF063F080D1
:2001BC0095F05023C374FE9E74818FF063F08095F0401474FEC39EFC74019FFD7AFF7B0064
:2001DC00780079000202A1C374FE9E74818FF063F08095F05022C374FD9E74828FF063F0C2
:2001FC008095F040137C007D007AFF7B00EE2402F8EF34FEF90202A1C374FD9E74828FF08C
:20021C0063F08095F05021C374FC9E74838FF063F08095F04012E4FCFD74FCC39EFA7403E9
:20023C009FFB78FF7900805DC374FC9E74838FF063F08095F05021C374FB9E74848FF06381
:20025C00F08095F04012EE2404FCEF34FCFD7A007B0078FF7900802DC374FB9E74848FF034
:20027C0063F08095F0501EC374FA9E74858FF063F08095F0400F7CFFE4FDFAFB74FAC39E8E
:20029C00F874059FF974FFB52C0280528C82852C27C003C002C001C000120122AF82D000EF
:2002BC00D001D002D0038F047D008A82852C27C005C004C001C000120122AF82D000D001A7
:2002DC008F027B008882852C27C003C002120122AF82D002D003D004D0058F0079008A2821
:2002FC008B29882A892B8C828D8312014B22E582FF245550148F06EE245675F003A4FEFDE3
:20031C007C0074FFC39EFE802CEF24AA50178F03EB24AB75F003A4FB7D008B0274FFC39A76
:20033C00FC8B068010EF75F003A4FFFB74FFC39BFD8F047E0074FFB52D028032852D278D41
:20035C0082C006C004120122AD82D004852D278C82C005120122AC82D005D006852D278E1C
:20037C0082C005C004120122AE82D004D0057F008C288F298E2A8F2B8D828F8312014B224A
:20039C00E562700575620180177401B56205756202800D7402B56205756203800375620059
:2003BC00227464B530087530FA758200800B74FAB53006753064758200227F00EF2F25E0FC
:2003DC002431F876000876000876000876000FBF0C0040E8227F00EF2F25E02431F876C07B
:2003FC000876C00876C00876000FBF0C0040E8227F00EF2F25E02431F985302C852E828538
:20041C002F83C007C001120180AB82AC83ADF0FED001D007A70309A70409A70509A7061972
:20043C001919E561601AAD2EAE2F052EE4B52E02052FC3ED9414EE64809485E433FE8018D6
:20045C00AC2EAD2F152E74FFB52E02152FBC0106BD0003EC8001E4FE8E610FBF0C0040927E
:20047C007401B5610474018001E4FFC37401952E7480852FF063F08095F0E4335F600CE546
:20049C002E24F5F52EE52F34FFF52FE561700B740B252EF52EE4352FF52F227E007F00EE3C
:2004BC002EFCEF33FDEC2CFCED33EC2431F98E088F099000FFC007C006C0011205ED7508DD
:2004DC000C750900120633AC82AD66EC2DF58285302D12030AAA82AB83ACF0FDD001D006BF
:2004FC00D007A70209A70309A70409A7051919190EBE00010FC3EE940CEF64809480409F06
:20051C00AF6674032FF56622209103756300E4B5630474018001E4FFA291E433FEEF5E602D
:20053C000612039C756301AE64AF650564E4B564020565E4BE6404BF000104FEA291E43301
:20055C005E600A1203BDAF828F64756500C3E4956474808565F063F08095F0E433FFA291D8
:20057C00B39201E433FE5F6005E4F564F565E56224FC4028E56275F003A490059A730205DE
:20059C00A60205AB0205B00205B51203D6800D1203F1800812040C80031204B79005DC1279
:2005BC0000FE7F00EF2F25E02431F987030987040987050987061919198B828C838DF0EE16
:1105DC00C00712007CD0070FBF0C0040D702052422A4
:06003500E478FFF6D8FD9F
:200013007900E94400601B7A0090066F780175A000E493F2A308B8000205A0D9F4DAF2751E
:02003300A0FF2C
:1D05ED00E5828508F0A4C582C0F08509F0A4D0F025F0C5838508F0A42583F58322D0
:20003B007800E84400600A790175A000E4F309D8FC7800E84400600C7900900001E4F0A3C3
:04005B00D8FCD9FAFA
:20060A007A10E4FBFCE58225E0F582E58333F583EB33FBEC33FCEB9508F5F0EC9509400604
:09062A00FCABF0438201DADD2291
:0D00060075816612066BE58260030200033F
:20063300C2D5E58330E70DD2D5E4C39582F582E49583F583E50930E70DB2D5E4C39508F562
:1806530008E49509F50912060A30D50BE4C39582F582E49583F583220A
:04066B007582002272
:00000001FF
